:100000000C9434000C943E000C943E000C943E0082
:100010000C943E000C943E000C943E000C943E0068
:100020000C943E000C943E000C943E000C943E0058
:100030000C943E000C943E000C943E000C943E0048
:100040000C943E000C943E000C943E000C943E0038
:100050000C943E000C943E000C943E000C943E0028
:100060000C943E000C943E0011241FBECFEFD8E04C
:10007000DEBFCDBF0E944B010C947E030C940000A8
:1000800080E28AB981E084BD88E085BD84B5806264
:1000900084BD85B5856085BD8CE987BD089580E602
:1000A00080937C0087E880937A000895EF92FF9216
:1000B0000F931F93CF93DF9300D000D000D0CDB724
:1000C000DEB779014E835D8320E030E04AEF54E4EF
:1000D00069837A838B839C8369817A818B819C81FC
:1000E0000E94110320E030E04AEF54E469837A83F0
:1000F0008B839C8369817A818B819C810E947601AC
:1001000069837A838B839C8369817A818B819C81CB
:100110000E945402709389006093880020E030E0D0
:100120004AEF54E4E982FA828E818B838D818C833D
:1001300069817A818B819C810E94110320E030E0EB
:100140004AEF54E469837A838B839C8369817A8143
:100150008B819C810E94760169837A838B839C8347
:1001600069817A818B819C810E945402462F572F8E
:1001700050938B0040938A0026960FB6F894DEBF0A
:100180000FBECDBFDF91CF911F910F91FF90EF90E8
:100190000895892B19F088E088BD089580E1FCCF8F
:1001A00084B114B82F9A089589B1082E000C990BC8
:1001B00080959095892F881F8827881F90E0089543
:1001C000CF93DF9300D000D0CDB7DEB717B800973C
:1001D000E9F580917C008E7F80937C0080917C008B
:1001E00080937C0080917A00806480937A00809173
:1001F0007A0086FDFCCF80917900282F30E050E016
:1002000040E029833A834B835C83CA01B9010E9491
:10021000830220E030E04FE753E469837A838B83E5
:100220009C8369817A818B819C810E94E201698330
:100230007A838B839C8369817A818B819C810F90E7
:100240000F900F900F90DF91CF910895019751F685
:1002500080917C0080937C0080917C008160C0CF85
:10026000219A229AE0E8F0E08081806A8083808190
:1002700090818260892B8083E1E8F0E08081886151
:10028000808380818260808380E49CE990938700F2
:1002900080938600089500D000D00F92CDB7DEB7CE
:1002A0000E94D0000E944F000E9430010E94400036
:1002B00081E090E00E94E0008B018D83998390E0C3
:1002C00080E00E94E00098014D81598169837A8322
:1002D0008B839C8369817A818B819C810E945600EB
:1002E0000E94D4000E94C900E3CF5058BB27AA2720
:1002F0000E948D010C94D7020E94C90238F00E941E
:10030000D00220F039F49F3F19F426F40C94C60271
:100310000EF4E095E7FB0C94C002E92F0E94E8027E
:1003200058F3BA17620773078407950720F079F42A
:10033000A6F50C940A030EF4E0950B2EBA2FA02D0F
:100340000B01B90190010C01CA01A0011124FF2782
:10035000591B99F0593F50F4503E68F11A16F0407D
:10036000A22F232F342F4427585FF3CF469537957C
:100370002795A795F0405395C9F77EF41F16BA0B41
:10038000620B730B840BBAF09150A1F0FF0FBB1FEF
:10039000661F771F881FC2F70EC0BA0F621F731F38
:1003A000841F48F4879577956795B795F7959E3F95
:1003B00008F0B0CF9395880F08F09927EE0F979526
:1003C000879508950E94F6010C94D7020E94D002EE
:1003D00058F00E94C90240F029F45F3F29F00C94C4
:1003E000C00251110C940B030C94C6020E94E80247
:1003F00068F39923B1F3552391F3951B550BBB2754
:10040000AA2762177307840738F09F5F5F4F220F98
:10041000331F441FAA1FA9F335D00E2E3AF0E0E88F
:1004200032D091505040E695001CCAF72BD0FE2FD9
:1004300029D0660F771F881FBB1F2617370748076D
:10044000AB07B0E809F0BB0B802DBF01FF27935825
:100450005F4F3AF09E3F510578F00C94C0020C9427
:100460000B035F3FE4F3983ED4F386957795679549
:10047000B795F7959F5FC9F7880F911D969587955A
:1004800097F90895E1E0660F771F881FBB1F621779
:1004900073078407BA0720F0621B730B840BBA0B37
:1004A000EE1F88F7E09508950E94F00288F09F57AC
:1004B00098F0B92F9927B751B0F0E1F0660F771F88
:1004C000881F991F1AF0BA95C9F714C0B13091F07E
:1004D0000E940A03B1E008950C940A03672F782F55
:1004E0008827B85F39F0B93FCCF386957795679543
:1004F000B395D9F73EF490958095709561957F4FAF
:100500008F4F9F4F0895E89409C097FB3EF4909554
:100510008095709561957F4F8F4F9F4F9923A9F0DC
:10052000F92F96E9BB279395F6958795779567956B
:10053000B795F111F8CFFAF4BB0F11F460FF1BC0AF
:100540006F5F7F4F8F4F9F4F16C0882311F096E942
:1005500011C0772321F09EE8872F762F05C06623F0
:1005600071F096E8862F70E060E02AF09A95660FA9
:10057000771F881FDAF7880F9695879597F9089562
:1005800097F99F6780E870E060E008959FEF80EC46
:10059000089500240A9416161706180609060895E9
:1005A00000240A9412161306140605060895092E4F
:1005B0000394000C11F4882352F0BB0F40F4BF2BBE
:1005C00011F460FF04C06F5F7F4F8F4F9F4F0895FE
:1005D00057FD9058440F551F59F05F3F71F04795F4
:1005E000880F97FB991F61F09F3F79F087950895D9
:1005F000121613061406551FF2CF4695F1DF08C0F8
:10060000161617061806991FF1CF86957105610514
:1006100008940895E894BB2766277727CB0197F9BC
:1006200008950E9424030C94D7020E94C90238F056
:100630000E94D00220F0952311F00C94C0020C947B
:10064000C60211240C940B030E94E80270F3959FDC
:10065000C1F3950F50E0551F629FF001729FBB27B9
:10066000F00DB11D639FAA27F00DB11DAA1F649F55
:100670006627B00DA11D661F829F2227B00DA11D08
:10068000621F739FB00DA11D621F839FA00D611D8E
:10069000221F749F3327A00D611D231F849F600DAF
:1006A000211D822F762F6A2F11249F5750409AF0D8
:1006B000F1F088234AF0EE0FFF1FBB1F661F771F64
:1006C000881F91505040A9F79E3F510580F00C942F
:1006D000C0020C940B035F3FE4F3983ED4F386957D
:1006E00077956795B795F795E7959F5FC1F7FE2BCF
:1006F000880F911D9695879597F90895F894FFCFE7
:00000001FF
